:100000000C9462000C948A000C948A000C948A0070
:100010000C948A000C948A000C948A000C948A0038
:100020000C948A000C948A000C948A000C948A0028
:100030000C948A000C948A000C948A000C948A0018
:100040000C94A6010C948A000C947C030C94AE03CF
:100050000C948A000C948A000C948A000C948A00F8
:100060000C948A000C948A0008000000BE92244977
:10007000123EABAAAA2ABECDCCCC4C3E00000080DA
:10008000BEABAAAAAA3E00000000BF000000803F4D
:100090000000000000084178D3BB4387D1133D190D
:1000A0000E3CC3BD4282AD2B3E68EC8276BED98F3A
:1000B000E1A93E4C80EFFFBE01C4FF7F3F0000007E
:1000C0000000DE0311241FBECFEFD8E0DEBFCDBF9E
:1000D00011E0A0E0B1E0EEEAFEE002C005900D9272
:1000E000A632B107D9F721E0A6E2B1E001C01D9226
:1000F000A53FB207E1F710E0C4ECD0E004C02297BE
:10010000FE010E945107C23CD107C9F70E94220498
:100110000C9455070C940000DC01ED91FC910190CA
:10012000F081E02D099426E040E855E260E070E0BF
:1001300088E591E00C941A038F929F92AF92BF9240
:10014000DF92EF92FF92CF93DF9300D000D0CDB734
:10015000DEB78091260181113DC088E591E00E94C3
:100160003702892B01F188E591E00E945002843525
:10017000910509F0DDC00E94F0014B015C0188E5AA
:1001800091E00E943702892B09F068C00E94F001BB
:10019000681979098A099B096931710581059105F9
:1001A00008F05CC0ECCF88E591E00E943702892B13
:1001B00009F0BEC081E08093260164E570E088E527
:1001C00091E00E948C0061E470E088E591E00E947B
:1001D0008C00AEC060914B0170914C0180914D013B
:1001E00090914E010E94BE050E944C060E948D0512
:1001F000605F772767FD709588E591E00E948C002D
:1002000040914B0150914C0160914D0170914E0114
:100210002AE030E088E591E00E94CA0466E071E0DF
:1002200088E591E00E946F0488E591E00E949302C6
:1002300080914B0190914C01A0914D01B0914E01E4
:100240000196A11DB11D80934B0190934C01A09389
:100250004D01B0934E01109226016AC088E591E0ED
:100260000E943702892B09F463C088E591E00E945F
:1002700050028134910509F45BC088E591E00E9449
:1002800050027C01D82E0E94F0014B015C01DA94EF
:10029000FF248EE18D1508F44BC088E591E00E94A3
:1002A00037028E159F055CF40E94F00168197909E8
:1002B0008A099B09693171058105910550F384E034
:1002C000E816F104A8F144E050E0BE016F5F7F4FF3
:1002D00088E591E00E94050584E0E816F10441F10B
:1002E000A7014450510967E271E088E591E00E945E
:1002F0000505809127018834D9F48091320181323B
:10030000B9F480913301811113C08091470190911C
:100310004801A0914901B0914A010196A11DB11D6A
:100320008093470190934801A0934901B0934A01FB
:100330000F900F900F900F90DF91CF91FF90EF9063
:10034000DF90BF90AF909F908F9008951F920F9273
:100350000FB60F9211242F933F938F939F93AF93D8
:10036000BF938091500190915101A0915201B091A1
:10037000530130914F0123E0230F2D3720F40196D4
:10038000A11DB11D05C026E8230F0296A11DB11DB8
:1003900020934F018093500190935101A0935201FB
:1003A000B09353018091540190915501A091560151
:1003B000B09157010196A11DB11D809354019093F6
:1003C0005501A0935601B0935701BF91AF919F91F2
:1003D0008F913F912F910F900FBE0F901F90189506
:1003E0002FB7F894609150017091510180915201A2
:1003F000909153012FBF0895789484B5826084BD95
:1004000084B5816084BD85B5826085BD85B5816018
:1004100085BDEEE6F0E0808181608083E1E8F0E078
:100420001082808182608083808181608083E0E8A7
:10043000F0E0808181608083E1EBF0E08081846086
:100440008083E0EBF0E0808181608083EAE7F0E088
:1004500080818460808380818260808380818160EC
:1004600080838081806880831092C1000895FC01A0
:10047000818D228D90E0805C9F4F821B91098F734C
:1004800099270895FC01918D828D981731F0828D06
:10049000E80FF11D858D90E008958FEF9FEF08958F
:1004A000FC01918D828D981761F0828DDF01A80F7C
:1004B000B11D5D968C91928D9F5F9F73928F90E09E
:1004C00008958FEF9FEF089584ED93E0892B49F015
:1004D00080E090E0892B29F00E94D40381110C94D4
:1004E00000000895FC01848DDF01A80FB11DA35AFF
:1004F000BF4F2C91848D90E001968F739927848F44
:10050000A689B7892C93A089B1898C9180648C933A
:10051000938D848D981306C00288F389E02D808125
:100520008F7D80830895CF93DF93EC01888D88239E
:10053000C9F0EA89FB89808185FD05C0A889B98950
:100540008C9186FD0FC00FB607FCF5CF808185FF2B
:10055000F2CFA889B9898C9185FFEDCFCE010E9499
:100560007202E7CFDF91CF910895CF92DF92FF9291
:100570000F931F93CF93DF931F92CDB7DEB76C011C
:1005800081E0D60158968C9358975B969C915B9727
:100590005C968C915C97981307C05096ED91FC91F6
:1005A0005197808185FD2EC0F601038D10E00F5F0D
:1005B0001F4F0F731127F02EF601848DF81211C012
:1005C0000FB607FCF9CFD6015096ED91FC915197EB
:1005D000808185FFF1CFC60169830E947202698123
:1005E000EBCF838DE80FF11DE35AFF4F6083D601F7
:1005F0005B960C935B975296ED91FC91539780819B
:1006000080620CC0D6015696ED91FC91579760839D
:100610005096ED91FC91519780818064808381E0B8
:1006200090E00F90DF91CF911F910F91FF90DF909D
:10063000CF900895BF92CF92DF92EF92FF92CF9327
:10064000DF93EC016A017B01B22EE889F98982E02F
:100650008083411581EE580761057105A1F060E0C6
:1006600079E08DE390E0A70196010E942D072150CB
:100670003109410951095695479537952795211517
:1006800080E1380798F0E889F989108260E874E819
:100690008EE190E0A70196010E942D0721503109BB
:1006A000410951095695479537952795EC85FD8564
:1006B0003083EE85FF852083188EEC89FD89B0821A
:1006C000EA89FB89808180618083EA89FB89808156
:1006D00088608083EA89FB89808180688083EA89D9
:1006E000FB8980818F7D8083DF91CF91FF90EF9098
:1006F000DF90CF90BF9008951F920F920FB60F9288
:1007000011242F938F939F93EF93FF93E0916801B0
:10071000F09169018081E0916E01F0916F0182FD9D
:1007200012C09081809171018F5F8F73209172014F
:10073000821751F0E0917101F0E0E85AFE4F958F79
:100740008093710101C08081FF91EF919F918F9102
:100750002F910F900FBE0F901F9018951F920F9220
:100760000FB60F9211242F933F934F935F936F9384
:100770007F938F939F93AF93BF93EF93FF9388E5FE
:1007800091E00E947202FF91EF91BF91AF919F9112
:100790008F917F916F915F914F913F912F910F902A
:1007A0000FBE0F901F90189588E591E00E943702C8
:1007B00021E0892B09F420E0822F089510925B013B
:1007C00010925A0188EE93E0A0E0B0E080935C01C3
:1007D00090935D01A0935E01B0935F0189E191E088
:1007E000909359018093580185EC90E090936501B6
:1007F0008093640184EC90E090936701809366019C
:1008000080EC90E0909369018093680181EC90E026
:1008100090936B0180936A0182EC90E090936D015C
:1008200080936C0186EC90E090936F0180936E0151
:100830001092710110927201109273011092740162
:10084000089508950E94FC010E9421040E949300D3
:10085000C4E6D2E00E949C002097E1F30E9464026B
:10086000F9CFCF92DF92EF92FF920F931F93CF9326
:10087000DF937C016A01EB0100E010E00C151D051F
:1008800071F06991D701ED91FC910190F081E02D1B
:10089000C7010995892B19F00F5F1F4FEFCFC801D2
:1008A000DF91CF911F910F91FF90EF90DF90CF904C
:1008B00008956115710581F0DB010D900020E9F7C5
:1008C000AD0141505109461B570BDC01ED91FC91E4
:1008D0000280F381E02D099480E090E008950C946B
:1008E00059048F929F92AF92BF92CF92DF92EF9274
:1008F000FF920F931F93CF93DF93CDB7DEB7A197EE
:100900000FB6F894DEBF0FBECDBF7C01C42EE52F1D
:10091000CB01D22E19A221E02D1510F02AE0D22E03
:100920008E010F5D1F4F8D2C912CA12CB12C6C2DA5
:100930007E2FA50194010E942D078C2DD29E801937
:100940001124015011098A3014F4805D01C0895CC2
:10095000F8018083211531054105510521F0C22E92
:10096000E32FCA01E4CFB801C7010E945904A19640
:100970000FB6F894DEBF0FBECDBFDF91CF911F91B0
:100980000F91FF90EF90DF90CF90BF90AF909F902E
:100990008F9008952115310541F4DC01ED91FC9112
:1009A0000190F081E02D642F09940C9471040F9351
:1009B0001F93CF93DF93EC010E94F0016887798742
:1009C0008A879B87E881F9810680F781E02DCE0137
:1009D000099597FF15C00E94F001088519852A85A1
:1009E0003B85601B710B820B930B0C811D812E814B
:1009F0003F81601771078207930720F38FEF9FEF06
:100A0000DF91CF911F910F910895CF92DF92EF92D6
:100A1000FF920F931F93CF93DF937C016A01EB0149
:100A200000E010E00C151D0549F0C7010E94D70435
:100A300097FD04C089930F5F1F4FF4CFC801DF916A
:100A4000CF911F910F91FF90EF90DF90CF9008957D
:100A50005058BB27AA270ED0E5C0D6D030F0DBD047
:100A600020F031F49F3F11F41EF4CBC00EF4E0955A
:100A7000E7FBC1C0E92FE7D080F3BA17620773071D
:100A80008407950718F071F49EF5FFC00EF4E09509
:100A90000B2EBA2FA02D0B01B90190010C01CA0138
:100AA000A0011124FF27591B99F0593F50F4503EE3
:100AB00068F11A16F040A22F232F342F4427585FD5
:100AC000F3CF469537952795A795F0405395C9F7ED
:100AD0007EF41F16BA0B620B730B840BBAF09150A5
:100AE000A1F0FF0FBB1F661F771F881FC2F70EC044
:100AF000BA0F621F731F841F48F487957795679517
:100B0000B795F7959E3F08F0B3CF9395880F08F0FF
:100B10009927EE0F97958795089504D06894B111A1
:100B2000B5C0089598D088F09F5790F0B92F9927B5
:100B3000B751A0F0D1F0660F771F881F991F1AF0E8
:100B4000BA95C9F712C0B13081F09FD0B1E00895D5
:100B50009CC0672F782F8827B85F39F0B93FCCF356
:100B6000869577956795B395D9F73EF490958095DE
:100B7000709561957F4F8F4F9F4F0895E89409C0FE
:100B800097FB3EF490958095709561957F4F8F4FC0
:100B90009F4F9923A9F0F92F96E9BB279395F695D6
:100BA000879577956795B795F111F8CFFAF4BB0F54
:100BB00011F460FF1BC06F5F7F4F8F4F9F4F16C0B8
:100BC000882311F096E911C0772321F09EE8872F42
:100BD000762F05C0662371F096E8862F70E060E0FE
:100BE0002AF09A95660F771F881FDAF7880F969577
:100BF000879597F9089597F99F6780E870E060E01E
:100C000008959FEF80EC089500240A9416161706A5
:100C100018060906089500240A94121613061406ED
:100C200005060895092E0394000C11F4882352F050
:100C3000BB0F40F4BF2B11F460FF04C06F5F7F4F08
:100C40008F4F9F4F089557FD9058440F551F59F0EF
:100C50005F3F71F04795880F97FB991F61F09F3FA9
:100C600079F087950895121613061406551FF2CFD2
:100C70004695F1DF08C0161617061806991FF1CF22
:100C800086957105610508940895E894BB27662749
:100C90007727CB0197F908950AD029ED3BE54EED72
:100CA0005EE345C00EF0A6C0ACCF6894A4CFD3DFFE
:100CB000C8F39923D1F3C6F3DF93CF931F930F9318
:100CC000FF92C92FDD2788232AF02197660F771F0F
:100CD000881FDAF720E030E040E85FEB9FE38839D7
:100CE00020F0803E30F021968F77B3DEE8E6F0E02A
:100CF00003C0AFDEE5E9F0E08BD08B01BE01EC0173
:100D0000FB2E6F5771097595771F880B990B38DF8C
:100D100028E132E741E35FE316D0AF2D9801AE0141
:100D2000FF900F911F91CF91DF91A4DE7BCF0BD06D
:100D300079CF6ADF28F06FDF18F0952309F05BCFD9
:100D400060CF1124A3CF7FDFA0F3959FD1F3950F40
:100D500050E0551F629FF001729FBB27F00DB11D3F
:100D6000639FAA27F00DB11DAA1F649F6627B00DCF
:100D7000A11D661F829F2227B00DA11D621F739FB8
:100D8000B00DA11D621F839FA00D611D221F749FC6
:100D90003327A00D611D231F849F600D211D822F0D
:100DA000762F6A2F11249F5750408AF0E1F0882354
:100DB0004AF0EE0FFF1FBB1F661F771F881F915061
:100DC0005040A9F79E3F510570F015CF5FCF5F3FB0
:100DD000ECF3983EDCF3869577956795B795F79594
:100DE000E7959F5FC1F7FE2B880F911D969587951C
:100DF00097F908959F3F31F0915020F487957795AA
:100E00006795B795880F911D9695879597F90895E1
:100E1000DF93CF931F930F93FF92EF92DF927B01AB
:100E20008C01689405C0DA2EEF018DDFFE01E89495
:100E3000A5912591359145915591AEF3EF011ADEBB
:100E4000FE019701A801DA9479F7DF90EF90FF9007
:100E50000F911F91CF91DF910895A1E21A2EAA1B45
:100E6000BB1BFD010DC0AA1FBB1FEE1FFF1FA2175A
:100E7000B307E407F50720F0A21BB30BE40BF50B57
:100E8000661F771F881F991F1A9469F760957095E0
:100E9000809590959B01AC01BD01CF010895EE0FA7
:0E0EA000FF1F0590F491E02D0994F894FFCF08
:100EAE000000F501800048656C6C6F20576F726C06
:100EBE0064210D0A0000000000B502310437025013
:060ECE0002420293020043
:00000001FF
